{
    "_format": "hh-sol-artifact-1",
    "contractName": "Hashes",
    "sourceName": "contracts/Hashes.sol",
    "abi": [
        {
            "inputs": [
                {
                    "internalType": "uint256",
                    "name": "_mintFee",
                    "type": "uint256"
                },
                {
                    "internalType": "uint256",
                    "name": "_reservedAmount",
                    "type": "uint256"
                },
                {
                    "internalType": "uint256",
                    "name": "_governanceCap",
                    "type": "uint256"
                },
                {
                    "internalType": "string",
                    "name": "_baseTokenURI",
                    "type": "string"
                }
            ],
            "stateMutability": "nonpayable",
            "type": "constructor"
        },
        {
            "anonymous": false,
            "inputs": [
                {
                    "indexed": true,
                    "internalType": "address",
                    "name": "owner",
                    "type": "address"
                },
                {
                    "indexed": true,
                    "internalType": "uint256",
                    "name": "tokenId",
                    "type": "uint256"
                }
            ],
            "name": "Activated",
            "type": "event"
        },
        {
            "anonymous": false,
            "inputs": [
                {
                    "indexed": true,
                    "internalType": "address",
                    "name": "owner",
                    "type": "address"
                },
                {
                    "indexed": true,
                    "internalType": "address",
                    "name": "approved",
                    "type": "address"
                },
                {
                    "indexed": true,
                    "internalType": "uint256",
                    "name": "tokenId",
                    "type": "uint256"
                }
            ],
            "name": "Approval",
            "type": "event"
        },
        {
            "anonymous": false,
            "inputs": [
                {
                    "indexed": true,
                    "internalType": "address",
                    "name": "owner",
                    "type": "address"
                },
                {
                    "indexed": true,
                    "internalType": "address",
                    "name": "operator",
                    "type": "address"
                },
                {
                    "indexed": false,
                    "internalType": "bool",
                    "name": "approved",
                    "type": "bool"
                }
            ],
            "name": "ApprovalForAll",
            "type": "event"
        },
        {
            "anonymous": false,
            "inputs": [
                {
                    "indexed": false,
                    "internalType": "string",
                    "name": "baseTokenURI",
                    "type": "string"
                }
            ],
            "name": "BaseTokenURISet",
            "type": "event"
        },
        {
            "anonymous": false,
            "inputs": [
                {
                    "indexed": true,
                    "internalType": "address",
                    "name": "owner",
                    "type": "address"
                },
                {
                    "indexed": true,
                    "internalType": "uint256",
                    "name": "tokenId",
                    "type": "uint256"
                },
                {
                    "indexed": false,
                    "internalType": "uint256",
                    "name": "proposalId",
                    "type": "uint256"
                }
            ],
            "name": "Deactivated",
            "type": "event"
        },
        {
            "anonymous": false,
            "inputs": [
                {
                    "indexed": true,
                    "internalType": "address",
                    "name": "delegator",
                    "type": "address"
                },
                {
                    "indexed": true,
                    "internalType": "address",
                    "name": "fromDelegate",
                    "type": "address"
                },
                {
                    "indexed": true,
                    "internalType": "address",
                    "name": "toDelegate",
                    "type": "address"
                }
            ],
            "name": "DelegateChanged",
            "type": "event"
        },
        {
            "anonymous": false,
            "inputs": [
                {
                    "indexed": true,
                    "internalType": "address",
                    "name": "delegate",
                    "type": "address"
                },
                {
                    "indexed": false,
                    "internalType": "uint256",
                    "name": "previousBalance",
                    "type": "uint256"
                },
                {
                    "indexed": false,
                    "internalType": "uint256",
                    "name": "newBalance",
                    "type": "uint256"
                }
            ],
            "name": "DelegateVotesChanged",
            "type": "event"
        },
        {
            "anonymous": false,
            "inputs": [
                {
                    "indexed": false,
                    "internalType": "address",
                    "name": "artist",
                    "type": "address"
                },
                {
                    "indexed": false,
                    "internalType": "uint256",
                    "name": "tokenId",
                    "type": "uint256"
                },
                {
                    "indexed": false,
                    "internalType": "string",
                    "name": "phrase",
                    "type": "string"
                }
            ],
            "name": "Generated",
            "type": "event"
        },
        {
            "anonymous": false,
            "inputs": [
                {
                    "indexed": true,
                    "internalType": "uint256",
                    "name": "fee",
                    "type": "uint256"
                }
            ],
            "name": "MintFeeSet",
            "type": "event"
        },
        {
            "anonymous": false,
            "inputs": [
                {
                    "indexed": true,
                    "internalType": "address",
                    "name": "previousOwner",
                    "type": "address"
                },
                {
                    "indexed": true,
                    "internalType": "address",
                    "name": "newOwner",
                    "type": "address"
                }
            ],
            "name": "OwnershipTransferred",
            "type": "event"
        },
        {
            "anonymous": false,
            "inputs": [
                {
                    "indexed": false,
                    "internalType": "address",
                    "name": "artist",
                    "type": "address"
                },
                {
                    "indexed": false,
                    "internalType": "uint256",
                    "name": "tokenId",
                    "type": "uint256"
                },
                {
                    "indexed": false,
                    "internalType": "string",
                    "name": "phrase",
                    "type": "string"
                }
            ],
            "name": "Redeemed",
            "type": "event"
        },
        {
            "anonymous": false,
            "inputs": [
                {
                    "indexed": true,
                    "internalType": "address",
                    "name": "from",
                    "type": "address"
                },
                {
                    "indexed": true,
                    "internalType": "address",
                    "name": "to",
                    "type": "address"
                },
                {
                    "indexed": true,
                    "internalType": "uint256",
                    "name": "tokenId",
                    "type": "uint256"
                }
            ],
            "name": "Transfer",
            "type": "event"
        },
        {
            "inputs": [],
            "name": "activate",
            "outputs": [
                {
                    "internalType": "uint256",
                    "name": "activationCount",
                    "type": "uint256"
                }
            ],
            "stateMutability": "payable",
            "type": "function"
        },
        {
            "inputs": [],
            "name": "activationFee",
            "outputs": [
                {
                    "internalType": "uint256",
                    "name": "",
                    "type": "uint256"
                }
            ],
            "stateMutability": "view",
            "type": "function"
        },
        {
            "inputs": [
                {
                    "internalType": "address",
                    "name": "to",
                    "type": "address"
                },
                {
                    "internalType": "uint256",
                    "name": "tokenId",
                    "type": "uint256"
                }
            ],
            "name": "approve",
            "outputs": [],
            "stateMutability": "nonpayable",
            "type": "function"
        },
        {
            "inputs": [
                {
                    "internalType": "address",
                    "name": "owner",
                    "type": "address"
                }
            ],
            "name": "balanceOf",
            "outputs": [
                {
                    "internalType": "uint256",
                    "name": "",
                    "type": "uint256"
                }
            ],
            "stateMutability": "view",
            "type": "function"
        },
        {
            "inputs": [],
            "name": "baseTokenURI",
            "outputs": [
                {
                    "internalType": "string",
                    "name": "",
                    "type": "string"
                }
            ],
            "stateMutability": "view",
            "type": "function"
        },
        {
            "inputs": [
                {
                    "internalType": "address",
                    "name": "",
                    "type": "address"
                },
                {
                    "internalType": "uint256",
                    "name": "",
                    "type": "uint256"
                }
            ],
            "name": "checkpoints",
            "outputs": [
                {
                    "internalType": "uint32",
                    "name": "id",
                    "type": "uint32"
                },
                {
                    "internalType": "uint256",
                    "name": "votes",
                    "type": "uint256"
                }
            ],
            "stateMutability": "view",
            "type": "function"
        },
        {
            "inputs": [
                {
                    "internalType": "address",
                    "name": "_tokenOwner",
                    "type": "address"
                },
                {
                    "internalType": "uint256",
                    "name": "_proposalId",
                    "type": "uint256"
                },
                {
                    "internalType": "bytes",
                    "name": "_signature",
                    "type": "bytes"
                }
            ],
            "name": "deactivate",
            "outputs": [
                {
                    "internalType": "uint256",
                    "name": "deactivationCount",
                    "type": "uint256"
                }
            ],
            "stateMutability": "nonpayable",
            "type": "function"
        },
        {
            "inputs": [
                {
                    "internalType": "uint256",
                    "name": "",
                    "type": "uint256"
                }
            ],
            "name": "deactivated",
            "outputs": [
                {
                    "internalType": "bool",
                    "name": "",
                    "type": "bool"
                }
            ],
            "stateMutability": "view",
            "type": "function"
        },
        {
            "inputs": [
                {
                    "internalType": "string",
                    "name": "_phrase",
                    "type": "string"
                }
            ],
            "name": "generate",
            "outputs": [],
            "stateMutability": "payable",
            "type": "function"
        },
        {
            "inputs": [
                {
                    "internalType": "uint256",
                    "name": "tokenId",
                    "type": "uint256"
                }
            ],
            "name": "getApproved",
            "outputs": [
                {
                    "internalType": "address",
                    "name": "",
                    "type": "address"
                }
            ],
            "stateMutability": "view",
            "type": "function"
        },
        {
            "inputs": [
                {
                    "internalType": "address",
                    "name": "_account",
                    "type": "address"
                }
            ],
            "name": "getCurrentVotes",
            "outputs": [
                {
                    "internalType": "uint256",
                    "name": "",
                    "type": "uint256"
                }
            ],
            "stateMutability": "view",
            "type": "function"
        },
        {
            "inputs": [
                {
                    "internalType": "uint256",
                    "name": "_tokenId",
                    "type": "uint256"
                }
            ],
            "name": "getHash",
            "outputs": [
                {
                    "internalType": "bytes32",
                    "name": "",
                    "type": "bytes32"
                }
            ],
            "stateMutability": "view",
            "type": "function"
        },
        {
            "inputs": [
                {
                    "internalType": "address",
                    "name": "_account",
                    "type": "address"
                },
                {
                    "internalType": "uint256",
                    "name": "_blockNumber",
                    "type": "uint256"
                }
            ],
            "name": "getPriorVotes",
            "outputs": [
                {
                    "internalType": "uint256",
                    "name": "",
                    "type": "uint256"
                }
            ],
            "stateMutability": "view",
            "type": "function"
        },
        {
            "inputs": [],
            "name": "governanceCap",
            "outputs": [
                {
                    "internalType": "uint256",
                    "name": "",
                    "type": "uint256"
                }
            ],
            "stateMutability": "view",
            "type": "function"
        },
        {
            "inputs": [
                {
                    "internalType": "address",
                    "name": "owner",
                    "type": "address"
                },
                {
                    "internalType": "address",
                    "name": "operator",
                    "type": "address"
                }
            ],
            "name": "isApprovedForAll",
            "outputs": [
                {
                    "internalType": "bool",
                    "name": "",
                    "type": "bool"
                }
            ],
            "stateMutability": "view",
            "type": "function"
        },
        {
            "inputs": [
                {
                    "internalType": "address",
                    "name": "",
                    "type": "address"
                }
            ],
            "name": "lastProposalIds",
            "outputs": [
                {
                    "internalType": "uint256",
                    "name": "",
                    "type": "uint256"
                }
            ],
            "stateMutability": "view",
            "type": "function"
        },
        {
            "inputs": [],
            "name": "lock",
            "outputs": [],
            "stateMutability": "nonpayable",
            "type": "function"
        },
        {
            "inputs": [],
            "name": "locked",
            "outputs": [
                {
                    "internalType": "bool",
                    "name": "",
                    "type": "bool"
                }
            ],
            "stateMutability": "view",
            "type": "function"
        },
        {
            "inputs": [],
            "name": "mintFee",
            "outputs": [
                {
                    "internalType": "uint256",
                    "name": "",
                    "type": "uint256"
                }
            ],
            "stateMutability": "view",
            "type": "function"
        },
        {
            "inputs": [],
            "name": "name",
            "outputs": [
                {
                    "internalType": "string",
                    "name": "",
                    "type": "string"
                }
            ],
            "stateMutability": "view",
            "type": "function"
        },
        {
            "inputs": [],
            "name": "nonce",
            "outputs": [
                {
                    "internalType": "uint256",
                    "name": "",
                    "type": "uint256"
                }
            ],
            "stateMutability": "view",
            "type": "function"
        },
        {
            "inputs": [
                {
                    "internalType": "address",
                    "name": "",
                    "type": "address"
                }
            ],
            "name": "numCheckpoints",
            "outputs": [
                {
                    "internalType": "uint256",
                    "name": "",
                    "type": "uint256"
                }
            ],
            "stateMutability": "view",
            "type": "function"
        },
        {
            "inputs": [],
            "name": "owner",
            "outputs": [
                {
                    "internalType": "address",
                    "name": "",
                    "type": "address"
                }
            ],
            "stateMutability": "view",
            "type": "function"
        },
        {
            "inputs": [
                {
                    "internalType": "uint256",
                    "name": "tokenId",
                    "type": "uint256"
                }
            ],
            "name": "ownerOf",
            "outputs": [
                {
                    "internalType": "address",
                    "name": "",
                    "type": "address"
                }
            ],
            "stateMutability": "view",
            "type": "function"
        },
        {
            "inputs": [
                {
                    "internalType": "uint256",
                    "name": "_tokenId",
                    "type": "uint256"
                },
                {
                    "internalType": "string",
                    "name": "_phrase",
                    "type": "string"
                }
            ],
            "name": "redeem",
            "outputs": [],
            "stateMutability": "nonpayable",
            "type": "function"
        },
        {
            "inputs": [],
            "name": "renounceOwnership",
            "outputs": [],
            "stateMutability": "nonpayable",
            "type": "function"
        },
        {
            "inputs": [],
            "name": "reservedAmount",
            "outputs": [
                {
                    "internalType": "uint256",
                    "name": "",
                    "type": "uint256"
                }
            ],
            "stateMutability": "view",
            "type": "function"
        },
        {
            "inputs": [
                {
                    "internalType": "address",
                    "name": "from",
                    "type": "address"
                },
                {
                    "internalType": "address",
                    "name": "to",
                    "type": "address"
                },
                {
                    "internalType": "uint256",
                    "name": "tokenId",
                    "type": "uint256"
                }
            ],
            "name": "safeTransferFrom",
            "outputs": [],
            "stateMutability": "nonpayable",
            "type": "function"
        },
        {
            "inputs": [
                {
                    "internalType": "address",
                    "name": "from",
                    "type": "address"
                },
                {
                    "internalType": "address",
                    "name": "to",
                    "type": "address"
                },
                {
                    "internalType": "uint256",
                    "name": "tokenId",
                    "type": "uint256"
                },
                {
                    "internalType": "bytes",
                    "name": "_data",
                    "type": "bytes"
                }
            ],
            "name": "safeTransferFrom",
            "outputs": [],
            "stateMutability": "nonpayable",
            "type": "function"
        },
        {
            "inputs": [
                {
                    "internalType": "address",
                    "name": "operator",
                    "type": "address"
                },
                {
                    "internalType": "bool",
                    "name": "approved",
                    "type": "bool"
                }
            ],
            "name": "setApprovalForAll",
            "outputs": [],
            "stateMutability": "nonpayable",
            "type": "function"
        },
        {
            "inputs": [
                {
                    "internalType": "string",
                    "name": "_baseTokenURI",
                    "type": "string"
                }
            ],
            "name": "setBaseTokenURI",
            "outputs": [],
            "stateMutability": "nonpayable",
            "type": "function"
        },
        {
            "inputs": [
                {
                    "internalType": "uint256",
                    "name": "_mintFee",
                    "type": "uint256"
                }
            ],
            "name": "setMintFee",
            "outputs": [],
            "stateMutability": "nonpayable",
            "type": "function"
        },
        {
            "inputs": [
                {
                    "internalType": "bytes4",
                    "name": "interfaceId",
                    "type": "bytes4"
                }
            ],
            "name": "supportsInterface",
            "outputs": [
                {
                    "internalType": "bool",
                    "name": "",
                    "type": "bool"
                }
            ],
            "stateMutability": "view",
            "type": "function"
        },
        {
            "inputs": [],
            "name": "symbol",
            "outputs": [
                {
                    "internalType": "string",
                    "name": "",
                    "type": "string"
                }
            ],
            "stateMutability": "view",
            "type": "function"
        },
        {
            "inputs": [
                {
                    "internalType": "uint256",
                    "name": "index",
                    "type": "uint256"
                }
            ],
            "name": "tokenByIndex",
            "outputs": [
                {
                    "internalType": "uint256",
                    "name": "",
                    "type": "uint256"
                }
            ],
            "stateMutability": "view",
            "type": "function"
        },
        {
            "inputs": [
                {
                    "internalType": "address",
                    "name": "owner",
                    "type": "address"
                },
                {
                    "internalType": "uint256",
                    "name": "index",
                    "type": "uint256"
                }
            ],
            "name": "tokenOfOwnerByIndex",
            "outputs": [
                {
                    "internalType": "uint256",
                    "name": "",
                    "type": "uint256"
                }
            ],
            "stateMutability": "view",
            "type": "function"
        },
        {
            "inputs": [
                {
                    "internalType": "uint256",
                    "name": "_tokenId",
                    "type": "uint256"
                }
            ],
            "name": "tokenURI",
            "outputs": [
                {
                    "internalType": "string",
                    "name": "",
                    "type": "string"
                }
            ],
            "stateMutability": "view",
            "type": "function"
        },
        {
            "inputs": [],
            "name": "totalSupply",
            "outputs": [
                {
                    "internalType": "uint256",
                    "name": "",
                    "type": "uint256"
                }
            ],
            "stateMutability": "view",
            "type": "function"
        },
        {
            "inputs": [
                {
                    "internalType": "address",
                    "name": "from",
                    "type": "address"
                },
                {
                    "internalType": "address",
                    "name": "to",
                    "type": "address"
                },
                {
                    "internalType": "uint256",
                    "name": "tokenId",
                    "type": "uint256"
                }
            ],
            "name": "transferFrom",
            "outputs": [],
            "stateMutability": "nonpayable",
            "type": "function"
        },
        {
            "inputs": [
                {
                    "internalType": "address",
                    "name": "_newOwner",
                    "type": "address"
                }
            ],
            "name": "transferOwnership",
            "outputs": [],
            "stateMutability": "nonpayable",
            "type": "function"
        },
        {
            "inputs": [
                {
                    "internalType": "uint256",
                    "name": "_tokenId",
                    "type": "uint256"
                },
                {
                    "internalType": "address",
                    "name": "_minter",
                    "type": "address"
                },
                {
                    "internalType": "string",
                    "name": "_phrase",
                    "type": "string"
                }
            ],
            "name": "verify",
            "outputs": [
                {
                    "internalType": "bool",
                    "name": "",
                    "type": "bool"
                }
            ],
            "stateMutability": "view",
            "type": "function"
        },
        {
            "inputs": [],
            "name": "version",
            "outputs": [
                {
                    "internalType": "string",
                    "name": "",
                    "type": "string"
                }
            ],
            "stateMutability": "view",
            "type": "function"
        }
    ],
    "bytecode": "0x60a06040523480156200001157600080fd5b506040516200611038038062006110833981016040819052620000349162000c63565b604080518082018252600681526548617368657360d01b60208083019182528351808501909452600484526309082a6960e31b9084015281519192916200007e9160009162000b0d565b5080516200009490600190602084019062000b0d565b50506001600a5550620000a7336200015f565b600d8390556080849052600c849055600e82905560005b600d548110156200013e57600f5433604051602001620000e092919062000e53565b60408051808303601f190181529181528151602092830120600f54600090815260159093529120556200012933600f80549060006200011f8362001070565b90915550620001b1565b80620001358162001070565b915050620000be565b5080516200015490601090602084019062000b0d565b505050505062001132565b600b80546001600160a01b038381166001600160a01b0319831681179093556040519116919082907f8be0079c531659141344cd1fd0a4f28419497f9722a3daafe3b4186f6b6457e090600090a35050565b620001d3828260405180602001604052806000815250620001d760201b60201c565b5050565b620001e383836200021f565b620001f2600084848462000317565b6200021a5760405162461bcd60e51b8152600401620002119062000edc565b60405180910390fd5b505050565b6001600160a01b038216620002485760405162461bcd60e51b8152600401620002119062000f12565b6000818152600260205260409020546001600160a01b031615620002805760405162461bcd60e51b8152600401620002119062000eee565b6200028e6000838362000447565b6001600160a01b0382166000908152600360205260408120805460019290620002b990849062000f96565b909155505060008181526002602052604080822080546001600160a01b0319166001600160a01b03861690811790915590518392907fddf252ad1be2c89b69c2b068fc378daa952ba7f163c4a11628f55a4df523b3ef908290a45050565b600062000338846001600160a01b03166200049460201b620021751760201c565b156200043b57604051630a85bd0160e11b81526001600160a01b0385169063150b7a02906200037290339089908890889060040162000e7d565b602060405180830381600087803b1580156200038d57600080fd5b505af1925050508015620003c0575060408051601f3d908101601f19168201909252620003bd9181019062000c3e565b60015b62000420573d808015620003f1576040519150601f19603f3d011682016040523d82523d6000602084013e620003f6565b606091505b508051620004185760405162461bcd60e51b8152600401620002119062000edc565b805181602001fd5b6001600160e01b031916630a85bd0160e11b1490506200043f565b5060015b949350505050565b6200045f8383836200049a60201b6200217b1760201c565b600e548110801562000480575060008181526011602052604090205460ff16155b156200021a576200021a8383600162000576565b3b151590565b620004b28383836200021a60201b62000b1a1760201c565b6001600160a01b03831662000510576200050a81600880546000838152600960205260408120829055600182018355919091527ff3f7a9fe364faab93b216da50a3214154f22a0a2b415b23a84c8169e8b636ee30155565b62000536565b816001600160a01b0316836001600160a01b0316146200053657620005368382620006e7565b6001600160a01b03821662000550576200021a8162000794565b826001600160a01b0316826001600160a01b0316146200021a576200021a82826200084e565b816001600160a01b0316836001600160a01b031614158015620005995750600081115b156200021a576001600160a01b0383161562000641576001600160a01b0383166000908152601460205260408120549081620005d757600062000610565b6001600160a01b038516600090815260136020526040812090620005fd60018562000fb1565b8152602001908152602001600020600101545b905060006200062e84836200089f60201b620022811790919060201c565b90506200063d868383620008b6565b5050505b6001600160a01b038216156200021a576001600160a01b038216600090815260146020526040812054908162000679576000620006b2565b6001600160a01b0384166000908152601360205260408120906200069f60018562000fb1565b8152602001908152602001600020600101545b90506000620006d0848362000a8560201b6200228d1790919060201c565b9050620006df858383620008b6565b505050505050565b60006001620007018462000a9360201b620013011760201c565b6200070d919062000fb1565b60008381526007602052604090205490915080821462000761576001600160a01b03841660009081526006602090815260408083208584528252808320548484528184208190558352600790915290208190555b5060009182526007602090815260408084208490556001600160a01b039094168352600681528383209183525290812055565b600854600090620007a89060019062000fb1565b60008381526009602052604081205460088054939450909284908110620007d357620007d3620010e4565b906000526020600020015490508060088381548110620007f757620007f7620010e4565b6000918252602080832090910192909255828152600990915260408082208490558582528120556008805480620008325762000832620010ce565b6001900381819060005260206000200160009055905550505050565b6000620008668362000a9360201b620013011760201c565b6001600160a01b039093166000908152600660209081526040808320868452825280832085905593825260079052919091209190915550565b6000620008ad828462000fb1565b90505b92915050565b6000620008ff436040518060400160405280601881526020017f4861736865733a206578636565647320333220626974732e000000000000000081525062000ada60201b60201c565b6001600160a01b03851660009081526014602052604090205490915080158015906200096c57506001600160a01b038516600090815260136020526040812063ffffffff8416916200095360018562000fb1565b815260208101919091526040016000205463ffffffff16145b15620009b3576001600160a01b038516600090815260136020526040812084916200099960018562000fb1565b815260208101919091526040016000206001015562000a39565b60408051808201825263ffffffff848116825260208083018781526001600160a01b038a166000908152601383528581208782528352949094209251835463ffffffff19169216919091178255915160019182015562000a1f9183919062000a85811b6200228d17901c565b6001600160a01b0386166000908152601460205260409020555b846001600160a01b03167fdec2bacdd2f05b59de34da9b523dff8be42e5e38e818c82fdb0bae774387a724858560405162000a7692919062000f24565b60405180910390a25050505050565b6000620008ad828462000f96565b60006001600160a01b03821662000abe5760405162461bcd60e51b8152600401620002119062000f00565b506001600160a01b031660009081526003602052604090205490565b600081640100000000841062000b055760405162461bcd60e51b815260040162000211919062000ec9565b509192915050565b82805462000b1b9062001010565b90600052602060002090601f01602090048101928262000b3f576000855562000b8a565b82601f1062000b5a57805160ff191683800117855562000b8a565b8280016001018555821562000b8a579182015b8281111562000b8a57825182559160200191906001019062000b6d565b5062000b9892915062000b9c565b5090565b5b8082111562000b98576000815560010162000b9d565b600062000bca62000bc48462000f69565b62000f4a565b90508281526020810184848401111562000be75762000be7600080fd5b62000bf484828562000fdd565b509392505050565b8051620008b08162001110565b600082601f83011262000c1f5762000c1f600080fd5b81516200043f84826020860162000bb3565b8051620008b0816200112b565b60006020828403121562000c555762000c55600080fd5b60006200043f848462000bfc565b6000806000806080858703121562000c7e5762000c7e600080fd5b600062000c8c878762000c31565b945050602062000c9f8782880162000c31565b935050604062000cb28782880162000c31565b92505060608501516001600160401b0381111562000cd35762000cd3600080fd5b62000ce18782880162000c09565b91505092959194509250565b62000cf88162000fcb565b82525050565b62000cf862000d0d8262000fcb565b6200108e565b600062000d1e825190565b80845260208401935062000d3781856020860162000fdd565b601f01601f19169290920192915050565b603281526000602082017f4552433732313a207472616e7366657220746f206e6f6e20455243373231526581527131b2b4bb32b91034b6b83632b6b2b73a32b960711b602082015291505b5060400190565b601c81526000602082017f4552433732313a20746f6b656e20616c7265616479206d696e74656400000000815291505b5060200190565b602a81526000602082017f4552433732313a2062616c616e636520717565727920666f7220746865207a65815269726f206164647265737360b01b6020820152915062000d93565b60208082527f4552433732313a206d696e7420746f20746865207a65726f20616464726573739101908152600062000dca565b8062000cf8565b600062000e61828562000e4c565b60208201915062000e73828462000cfe565b5060140192915050565b6080810162000e8d828762000ced565b62000e9c602083018662000ced565b62000eab604083018562000e4c565b818103606083015262000ebf818462000d13565b9695505050505050565b60208082528101620008ad818462000d13565b60208082528101620008b08162000d48565b60208082528101620008b08162000d9a565b60208082528101620008b08162000dd1565b60208082528101620008b08162000e19565b6040810162000f34828562000e4c565b62000f43602083018462000e4c565b9392505050565b600062000f5660405190565b905062000f64828262001041565b919050565b60006001600160401b0382111562000f855762000f85620010fa565b601f19601f83011660200192915050565b6000821982111562000fac5762000fac620010a2565b500190565b60008282101562000fc65762000fc6620010a2565b500390565b60006001600160a01b038216620008b0565b60005b8381101562000ffa57818101518382015260200162000fe0565b838111156200100a576000848401525b50505050565b6002810460018216806200102557607f821691505b602082108114156200103b576200103b620010b8565b50919050565b601f19601f83011681018181106001600160401b0382111715620010695762001069620010fa565b6040525050565b6000600019821415620010875762001087620010a2565b5060010190565b6000620008b0826000620008b08260601b90565b634e487b7160e01b600052601160045260246000fd5b634e487b7160e01b600052602260045260246000fd5b634e487b7160e01b600052603160045260246000fd5b634e487b7160e01b600052603260045260246000fd5b634e487b7160e01b600052604160045260246000fd5b6001600160e01b031981165b81146200112857600080fd5b50565b806200111c565b608051614fbb620011556000396000818161062a0152610c4e0152614fbb6000f3fe6080604052600436106102d15760003560e01c8063715018a611610179578063b88d4fde116100d6578063da558e6e1161008a578063f2fde38b11610064578063f2fde38b14610878578063f83d08ba14610898578063f92c45b7146108ad57600080fd5b8063da558e6e146107e2578063e985e9c514610802578063eddd0d9c1461085857600080fd5b8063c87b56dd116100bb578063c87b56dd1461077b578063cf3090121461079b578063d547cfb7146107cd57600080fd5b8063b88d4fde14610748578063c3d670fe1461076857600080fd5b8063a22cb4651161012d578063affed0e011610112578063affed0e0146106fc578063b233b38914610712578063b4b5ea571461072857600080fd5b8063a22cb465146106ac578063a899b36c146106cc57600080fd5b8063782d6fe11161015e578063782d6fe11461064c5780638da5cb5b1461066c57806395d89b411461069757600080fd5b8063715018a61461060357806377d630ae1461061857600080fd5b806324b76fd51161023257806354fd4d50116101e65780636b2fafa9116101c05780636b2fafa9146105895780636fcfff45146105b657806370a08231146105e357600080fd5b806354fd4d50146105005780636243da3b146105495780636352211e1461056957600080fd5b806330176e131161021757806330176e13146104a057806342842e0e146104c05780634f6ccce7146104e057600080fd5b806324b76fd5146104605780632f745c591461048057600080fd5b80630cdfebfa1161028957806313966db51161026e57806313966db51461041557806318160ddd1461042b57806323b872dd1461044057600080fd5b80630cdfebfa146103b75780630f15f4c01461040d57600080fd5b806306fdde03116102ba57806306fdde0314610346578063081812fc14610368578063095ea7b31461039557600080fd5b806301c22a3d146102d657806301ffc9a714610319575b600080fd5b3480156102e257600080fd5b506103036102f1366004613788565b60126020526000908152604090205481565b6040516103109190614922565b60405180910390f35b34801561032557600080fd5b5061033961033436600461397c565b6108c3565b6040516103109190614914565b34801561035257600080fd5b5061035b61091f565b6040516103109190614965565b34801561037457600080fd5b506103886103833660046139f9565b6109b1565b6040516103109190614895565b3480156103a157600080fd5b506103b56103b03660046138e8565b610a3e565b005b3480156103c357600080fd5b506103ff6103d23660046138e8565b60136020908152600092835260408084209091529082529020805460019091015463ffffffff9091169082565b604051610310929190614c01565b610303610b1f565b34801561042157600080fd5b50610303600c5481565b34801561043757600080fd5b50600854610303565b34801561044c57600080fd5b506103b561045b3660046137e6565b610e12565b34801561046c57600080fd5b506103b561047b366004613a4f565b610e5d565b34801561048c57600080fd5b5061030361049b3660046138e8565b611069565b3480156104ac57600080fd5b506103b56104bb3660046139be565b6110e2565b3480156104cc57600080fd5b506103b56104db3660046137e6565b611181565b3480156104ec57600080fd5b506103036104fb3660046139f9565b61119c565b34801561050c57600080fd5b5061035b6040518060400160405280600181526020017f310000000000000000000000000000000000000000000000000000000000000081525081565b34801561055557600080fd5b50610339610564366004613a1a565b611204565b34801561057557600080fd5b506103886105843660046139f9565b6112a5565b34801561059557600080fd5b506103036105a43660046139f9565b60009081526015602052604090205490565b3480156105c257600080fd5b506103036105d1366004613788565b60146020526000908152604090205481565b3480156105ef57600080fd5b506103036105fe366004613788565b611301565b34801561060f57600080fd5b506103b5611379565b34801561062457600080fd5b506103037f000000000000000000000000000000000000000000000000000000000000000081565b34801561065857600080fd5b506103036106673660046138e8565b6113d6565b34801561067857600080fd5b50600b5473ffffffffffffffffffffffffffffffffffffffff16610388565b3480156106a357600080fd5b5061035b611637565b3480156106b857600080fd5b506103b56106c73660046138b5565b611646565b3480156106d857600080fd5b506103396106e73660046139f9565b60116020526000908152604090205460ff1681565b34801561070857600080fd5b50610303600f5481565b34801561071e57600080fd5b50610303600e5481565b34801561073457600080fd5b50610303610743366004613788565b611730565b34801561075457600080fd5b506103b5610763366004613836565b6117ac565b6103b56107763660046139be565b6117fe565b34801561078757600080fd5b5061035b6107963660046139f9565b611af5565b3480156107a757600080fd5b50600b546103399074010000000000000000000000000000000000000000900460ff1681565b3480156107d957600080fd5b5061035b611b64565b3480156107ee57600080fd5b506103036107fd36600461391b565b611bf2565b34801561080e57600080fd5b5061033961081d3660046137a9565b73ffffffffffffffffffffffffffffffffffffffff918216600090815260056020908152604080832093909416825291909152205460ff1690565b34801561086457600080fd5b506103b56108733660046139f9565b611f58565b34801561088457600080fd5b506103b5610893366004613788565b611fdc565b3480156108a457600080fd5b506103b561208e565b3480156108b957600080fd5b50610303600d5481565b60007fffffffff0000000000000000000000000000000000000000000000000000000082167f780e9d63000000000000000000000000000000000000000000000000000000001480610919575061091982612299565b92915050565b60606000805461092e90614d4a565b80601f016020809104026020016040519081016040528092919081815260200182805461095a90614d4a565b80156109a75780601f1061097c576101008083540402835291602001916109a7565b820191906000526020600020905b81548152906001019060200180831161098a57829003601f168201915b5050505050905090565b60008181526002602052604081205473ffffffffffffffffffffffffffffffffffffffff16610a15576040517f08c379a0000000000000000000000000000000000000000000000000000000008152600401610a0c90614a96565b60405180910390fd5b5060009081526004602052604090205473ffffffffffffffffffffffffffffffffffffffff1690565b6000610a49826112a5565b90508073ffffffffffffffffffffffffffffffffffffffff168373ffffffffffffffffffffffffffffffffffffffff161415610ab1576040517f08c379a0000000000000000000000000000000000000000000000000000000008152600401610a0c90614b16565b3373ffffffffffffffffffffffffffffffffffffffff82161480610ada5750610ada813361081d565b610b10576040517f08c379a0000000000000000000000000000000000000000000000000000000008152600401610a0c90614a46565b610b1a838361237c565b505050565b60006002600a541415610b5e576040517f08c379a0000000000000000000000000000000000000000000000000000000008152600401610a0c90614ba6565b6002600a5560005b610b6f33611301565b811015610c39576000610b823383611069565b9050600d548110158015610b975750600e5481105b8015610bb1575060008181526011602052604090205460ff165b15610c2657600081815260116020526040902080547fffffffffffffffffffffffffffffffffffffffffffffffffffffffffffffff0016905582610bf481614dc2565b60405190945082915033907fcffdf6de62e8d9ae544ba4c36565fe4bcef3c1a96f174abbe6c56e25e2b220ed90600090a35b5080610c3181614dc2565b915050610b66565b50610c466000338361241c565b600080610c737f0000000000000000000000000000000000000000000000000000000000000000846125c5565b905080341015610caf576040517f08c379a0000000000000000000000000000000000000000000000000000000008152600401610a0c90614bc6565b600b5473ffffffffffffffffffffffffffffffffffffffff1673ffffffffffffffffffffffffffffffffffffffff1681604051610ceb90614858565b60006040518083038185875af1925050503d8060008114610d28576040519150601f19603f3d011682016040523d82523d6000602084013e610d2d565b606091505b50508092505081610d6a576040517f08c379a0000000000000000000000000000000000000000000000000000000008152600401610a0c90614aa6565b80341115610e085733610d7d8234614cdd565b604051610d8990614858565b60006040518083038185875af1925050503d8060008114610dc6576040519150601f19603f3d011682016040523d82523d6000602084013e610dcb565b606091505b50508092505081610e08576040517f08c379a0000000000000000000000000000000000000000000000000000000008152600401610a0c90614af6565b50506001600a5590565b610e1c33826125d1565b610e52576040517f08c379a0000000000000000000000000000000000000000000000000000000008152600401610a0c90614b46565b610b1a8383836126eb565b6002600a541415610e9a576040517f08c379a0000000000000000000000000000000000000000000000000000000008152600401610a0c90614ba6565b6002600a55610ea8826112a5565b73ffffffffffffffffffffffffffffffffffffffff163373ffffffffffffffffffffffffffffffffffffffff1614610f0c576040517f08c379a0000000000000000000000000000000000000000000000000000000008152600401610a0c90614a26565b600d548210610f47576040517f08c379a0000000000000000000000000000000000000000000000000000000008152600401610a0c90614b36565b60008281526016602052604090205460ff1615610f90576040517f08c379a0000000000000000000000000000000000000000000000000000000008152600401610a0c90614bd6565b600082815260166020526040902080547fffffffffffffffffffffffffffffffffffffffffffffffffffffffffffffff0016600117905581610fcf3390565b82604051602001610fe293929190614860565b604080518083037fffffffffffffffffffffffffffffffffffffffffffffffffffffffffffffffe00181529181528151602092830120600085815260159093529120557f784e131f41825c0f4dedaf1b303cfd417f3603b2e95ed4a0c0bdc2176dbbc3ee338383604051611058939291906148e7565b60405180910390a150506001600a55565b600061107483611301565b82106110ac576040517f08c379a0000000000000000000000000000000000000000000000000000000008152600401610a0c90614996565b5073ffffffffffffffffffffffffffffffffffffffff919091166000908152600660209081526040808320938352929052205490565b600b5473ffffffffffffffffffffffffffffffffffffffff163314611133576040517f08c379a0000000000000000000000000000000000000000000000000000000008152600401610a0c90614ac6565b8051611146906010906020840190613653565b507f2e9b34e5ec7377754a85ec13c1e9a442a00db0c46dbdefbb143dd0371fd20c1c816040516111769190614965565b60405180910390a150565b610b1a838383604051806020016040528060008152506117ac565b60006111a760085490565b82106111df576040517f08c379a0000000000000000000000000000000000000000000000000000000008152600401610a0c90614b66565b600882815481106111f2576111f2614edd565b90600052602060002001549050919050565b6000600f548410158061122b575073ffffffffffffffffffffffffffffffffffffffff8316155b8061123557508151155b156112425750600061129e565b83838360405160200161125793929190614860565b604080517fffffffffffffffffffffffffffffffffffffffffffffffffffffffffffffffe08184030181529181528151602092830120600087815260159093529120541490505b9392505050565b60008181526002602052604081205473ffffffffffffffffffffffffffffffffffffffff1680610919576040517f08c379a0000000000000000000000000000000000000000000000000000000008152600401610a0c90614a66565b600073ffffffffffffffffffffffffffffffffffffffff8216611350576040517f08c379a0000000000000000000000000000000000000000000000000000000008152600401610a0c90614a56565b5073ffffffffffffffffffffffffffffffffffffffff1660009081526003602052604090205490565b600b5473ffffffffffffffffffffffffffffffffffffffff1633146113ca576040517f08c379a0000000000000000000000000000000000000000000000000000000008152600401610a0c90614ac6565b6113d460006128b2565b565b6000438210611411576040517f08c379a0000000000000000000000000000000000000000000000000000000008152600401610a0c90614b86565b73ffffffffffffffffffffffffffffffffffffffff831660009081526014602052604090205480611446576000915050610919565b73ffffffffffffffffffffffffffffffffffffffff841660009081526013602052604081208491611478600185614cdd565b815260208101919091526040016000205463ffffffff16116114df5773ffffffffffffffffffffffffffffffffffffffff84166000908152601360205260408120906114c5600184614cdd565b815260200190815260200160002060010154915050610919565b73ffffffffffffffffffffffffffffffffffffffff8416600090815260136020908152604080832083805290915290205463ffffffff16831015611527576000915050610919565b600080611535600184614cdd565b90505b818111156115fa576000600261154e8484614cdd565b6115589190614c8c565b6115629083614cdd565b73ffffffffffffffffffffffffffffffffffffffff881660009081526013602090815260408083208484528252918290208251808401909352805463ffffffff1680845260019091015491830191909152919250908714156115ce576020015194506109199350505050565b805163ffffffff168711156115e5578193506115f3565b6115f0600183614cdd565b92505b5050611538565b5073ffffffffffffffffffffffffffffffffffffffff85166000908152601360209081526040808320938352929052206001015491505092915050565b60606001805461092e90614d4a565b73ffffffffffffffffffffffffffffffffffffffff8216331415611696576040517f08c379a0000000000000000000000000000000000000000000000000000000008152600401610a0c906149e6565b33600081815260056020908152604080832073ffffffffffffffffffffffffffffffffffffffff871680855292529182902080547fffffffffffffffffffffffffffffffffffffffffffffffffffffffffffffff001685151517905590519091907f17307eab39ab6107e8899845ad3d59bd9653f200f220920489ca2b5937696c3190611724908590614914565b60405180910390a35050565b73ffffffffffffffffffffffffffffffffffffffff81166000908152601460205260408120548061176257600061129e565b73ffffffffffffffffffffffffffffffffffffffff8316600090815260136020526040812090611793600184614cdd565b8152602001908152602001600020600101549392505050565b6117b633836125d1565b6117ec576040517f08c379a0000000000000000000000000000000000000000000000000000000008152600401610a0c90614b46565b6117f884848484612929565b50505050565b6002600a54141561183b576040517f08c379a0000000000000000000000000000000000000000000000000000000008152600401610a0c90614ba6565b6002600a558051611878576040517f08c379a0000000000000000000000000000000000000000000000000000000008152600401610a0c90614b26565b600c543410156118b4576040517f08c379a0000000000000000000000000000000000000000000000000000000008152600401610a0c90614986565b600f5433826040516020016118cb93929190614860565b604080518083037fffffffffffffffffffffffffffffffffffffffffffffffffffffffffffffffe00181529181528151602092830120600f546000908152601590935291205561192e33600f805490600061192583614dc2565b91905055612976565b600c5460009015611a0257600061195a600b5473ffffffffffffffffffffffffffffffffffffffff1690565b73ffffffffffffffffffffffffffffffffffffffff16600c5460405161197f90614858565b60006040518083038185875af1925050503d80600081146119bc576040519150601f19603f3d011682016040523d82523d6000602084013e6119c1565b606091505b50509050806119fc576040517f08c379a0000000000000000000000000000000000000000000000000000000008152600401610a0c90614a36565b5050600c545b80341115611aa257600033611a178334614cdd565b604051611a2390614858565b60006040518083038185875af1925050503d8060008114611a60576040519150601f19603f3d011682016040523d82523d6000602084013e611a65565b606091505b5050905080611aa0576040517f08c379a0000000000000000000000000000000000000000000000000000000008152600401610a0c90614b56565b505b600e54600f541415611ab4576000600c555b7f9eef06a261086c807283d12a8c4898b6ad08bd5dea8459d2169c8ecb3723f269336001600f54611ae59190614cdd565b84604051611058939291906148e7565b6060600f548210611b32576040517f08c379a0000000000000000000000000000000000000000000000000000000008152600401610a0c90614ab6565b6010611b3d83612994565b604051602001611b4e929190614840565b6040516020818303038152906040529050919050565b60108054611b7190614d4a565b80601f0160208091040260200160405190810160405280929190818152602001828054611b9d90614d4a565b8015611bea5780601f10611bbf57610100808354040283529160200191611bea565b820191906000526020600020905b815481529060010190602001808311611bcd57829003601f168201915b505050505081565b60006002600a541415611c31576040517f08c379a0000000000000000000000000000000000000000000000000000000008152600401610a0c90614ba6565b6002600a55600b5473ffffffffffffffffffffffffffffffffffffffff163314611c87576040517f08c379a0000000000000000000000000000000000000000000000000000000008152600401610a0c90614ac6565b73ffffffffffffffffffffffffffffffffffffffff84166000908152601260205260409020548311611ce5576040517f08c379a0000000000000000000000000000000000000000000000000000000008152600401610a0c90614bb6565b73ffffffffffffffffffffffffffffffffffffffff84166000908152601260205260408120849055611db6611d1861091f565b604080518082018252600181527f310000000000000000000000000000000000000000000000000000000000000060209182015282519281019290922081517f8b73c3c69bb8fe3d512ecc4cf759cc79239f7b179b0ffacaa9a75d522b39400f8152928301527fc89efdaa54c0f20c7adf612882df0950f5a951637e0307cdcb4c672f298b8bc69082015246606082015230608082015260a0902090565b90506000611dd260405180602001604052808781525083612ac6565b90508573ffffffffffffffffffffffffffffffffffffffff16611df58286612b0f565b73ffffffffffffffffffffffffffffffffffffffff1614611e42576040517f08c379a0000000000000000000000000000000000000000000000000000000008152600401610a0c90614ae6565b60005b611e4e87611301565b811015611f3d576000611e618883611069565b9050600d548110158015611e765750600e5481105b8015611e91575060008181526011602052604090205460ff16155b15611f2a57600081815260116020526040902080547fffffffffffffffffffffffffffffffffffffffffffffffffffffffffffffff0016600117905584611ed781614dc2565b955050808873ffffffffffffffffffffffffffffffffffffffff167f53fa1cfa66e5081df8b64f227c916332fd30af547156907cbf24a45dd23b116889604051611f219190614922565b60405180910390a35b5080611f3581614dc2565b915050611e45565b50611f4a8660008561241c565b50506001600a559392505050565b600b5473ffffffffffffffffffffffffffffffffffffffff163314611fa9576040517f08c379a0000000000000000000000000000000000000000000000000000000008152600401610a0c90614ac6565b600c81905560405181907f97aee230ba41961438e908e115df76fa8113f85a0586d85b19ba5be50e6a227490600090a250565b600b5473ffffffffffffffffffffffffffffffffffffffff16331461202d576040517f08c379a0000000000000000000000000000000000000000000000000000000008152600401610a0c90614ac6565b600b5474010000000000000000000000000000000000000000900460ff1615612082576040517f08c379a0000000000000000000000000000000000000000000000000000000008152600401610a0c90614b06565b61208b81612c7f565b50565b600b5473ffffffffffffffffffffffffffffffffffffffff1633146120df576040517f08c379a0000000000000000000000000000000000000000000000000000000008152600401610a0c90614ac6565b600b5474010000000000000000000000000000000000000000900460ff1615612134576040517f08c379a0000000000000000000000000000000000000000000000000000000008152600401610a0c90614b96565b600b80547fffffffffffffffffffffff00ffffffffffffffffffffffffffffffffffffffff1674010000000000000000000000000000000000000000179055565b3b151590565b73ffffffffffffffffffffffffffffffffffffffff83166121e3576121de81600880546000838152600960205260408120829055600182018355919091527ff3f7a9fe364faab93b216da50a3214154f22a0a2b415b23a84c8169e8b636ee30155565b612220565b8173ffffffffffffffffffffffffffffffffffffffff168373ffffffffffffffffffffffffffffffffffffffff1614612220576122208382612d26565b73ffffffffffffffffffffffffffffffffffffffff821661224457610b1a81612ddd565b8273ffffffffffffffffffffffffffffffffffffffff168273ffffffffffffffffffffffffffffffffffffffff1614610b1a57610b1a8282612e8c565b600061129e8284614cdd565b600061129e8284614c74565b60007fffffffff0000000000000000000000000000000000000000000000000000000082167f80ac58cd00000000000000000000000000000000000000000000000000000000148061232c57507fffffffff0000000000000000000000000000000000000000000000000000000082167f5b5e139f00000000000000000000000000000000000000000000000000000000145b8061091957507f01ffc9a7000000000000000000000000000000000000000000000000000000007fffffffff00000000000000000000000000000000000000000000000000000000831614610919565b600081815260046020526040902080547fffffffffffffffffffffffff00000000000000000000000000000000000000001673ffffffffffffffffffffffffffffffffffffffff841690811790915581906123d6826112a5565b73ffffffffffffffffffffffffffffffffffffffff167f8c5be1e5ebec7d5bd14f71427d1e84f3dd0314c0f7b2291e5b200ac8c7c3b92560405160405180910390a45050565b8173ffffffffffffffffffffffffffffffffffffffff168373ffffffffffffffffffffffffffffffffffffffff16141580156124585750600081115b15610b1a5773ffffffffffffffffffffffffffffffffffffffff83161561250f5773ffffffffffffffffffffffffffffffffffffffff831660009081526014602052604081205490816124ac5760006124f0565b73ffffffffffffffffffffffffffffffffffffffff85166000908152601360205260408120906124dd600185614cdd565b8152602001908152602001600020600101545b905060006124fe8285612281565b905061250b868383612edd565b5050505b73ffffffffffffffffffffffffffffffffffffffff821615610b1a5773ffffffffffffffffffffffffffffffffffffffff8216600090815260146020526040812054908161255e5760006125a2565b73ffffffffffffffffffffffffffffffffffffffff841660009081526013602052604081209061258f600185614cdd565b8152602001908152602001600020600101545b905060006125b0828561228d565b90506125bd858383612edd565b505050505050565b600061129e8284614ca0565b60008181526002602052604081205473ffffffffffffffffffffffffffffffffffffffff1661262c576040517f08c379a0000000000000000000000000000000000000000000000000000000008152600401610a0c90614a16565b6000612637836112a5565b90508073ffffffffffffffffffffffffffffffffffffffff168473ffffffffffffffffffffffffffffffffffffffff1614806126a657508373ffffffffffffffffffffffffffffffffffffffff1661268e846109b1565b73ffffffffffffffffffffffffffffffffffffffff16145b806126e3575073ffffffffffffffffffffffffffffffffffffffff80821660009081526005602090815260408083209388168352929052205460ff165b949350505050565b8273ffffffffffffffffffffffffffffffffffffffff1661270b826112a5565b73ffffffffffffffffffffffffffffffffffffffff1614612758576040517f08c379a0000000000000000000000000000000000000000000000000000000008152600401610a0c90614ad6565b73ffffffffffffffffffffffffffffffffffffffff82166127a5576040517f08c379a0000000000000000000000000000000000000000000000000000000008152600401610a0c906149d6565b6127b08383836130f8565b6127bb60008261237c565b73ffffffffffffffffffffffffffffffffffffffff831660009081526003602052604081208054600192906127f1908490614cdd565b909155505073ffffffffffffffffffffffffffffffffffffffff8216600090815260036020526040812080546001929061282c908490614c74565b909155505060008181526002602052604080822080547fffffffffffffffffffffffff00000000000000000000000000000000000000001673ffffffffffffffffffffffffffffffffffffffff86811691821790925591518493918716917fddf252ad1be2c89b69c2b068fc378daa952ba7f163c4a11628f55a4df523b3ef91a4505050565b600b805473ffffffffffffffffffffffffffffffffffffffff8381167fffffffffffffffffffffffff0000000000000000000000000000000000000000831681179093556040519116919082907f8be0079c531659141344cd1fd0a4f28419497f9722a3daafe3b4186f6b6457e090600090a35050565b6129348484846126eb565b61294084848484613134565b6117f8576040517f08c379a0000000000000000000000000000000000000000000000000000000008152600401610a0c906149a6565b6129908282604051806020016040528060008152506132da565b5050565b6060816129d457505060408051808201909152600181527f3000000000000000000000000000000000000000000000000000000000000000602082015290565b8160005b81156129fe57806129e881614dc2565b91506129f79050600a83614c8c565b91506129d8565b60008167ffffffffffffffff811115612a1957612a19614f0c565b6040519080825280601f01601f191660200182016040528015612a43576020820181803683370190505b5090505b84156126e357612a58600183614cdd565b9150612a65600a86614e0d565b612a70906030614c74565b60f81b818381518110612a8557612a85614edd565b60200101907effffffffffffffffffffffffffffffffffffffffffffffffffffffffffffff1916908160001a905350612abf600a86614c8c565b9450612a47565b600061129e82612ad585613327565b6040517f19010000000000000000000000000000000000000000000000000000000000008152600281019290925260228201526042902090565b60008151604114612b4c576040517f08c379a0000000000000000000000000000000000000000000000000000000008152600401610a0c90614b76565b600082600081518110612b6157612b61614edd565b01602001516021840151604185015160f89290921c925090612b84838383613389565b60007f19457468657265756d205369676e6564204d6573736167653a0a33320000000060005286601c52603c6000209050600060018286868660405160008152602001604052604051612bda9493929190614930565b6020604051602081039080840390855afa158015612bfc573d6000803e3d6000fd5b50506040517fffffffffffffffffffffffffffffffffffffffffffffffffffffffffffffffe0015191505073ffffffffffffffffffffffffffffffffffffffff8116612c74576040517f08c379a0000000000000000000000000000000000000000000000000000000008152600401610a0c90614a06565b979650505050505050565b600b5473ffffffffffffffffffffffffffffffffffffffff163314612cd0576040517f08c379a0000000000000000000000000000000000000000000000000000000008152600401610a0c90614ac6565b73ffffffffffffffffffffffffffffffffffffffff8116612d1d576040517f08c379a0000000000000000000000000000000000000000000000000000000008152600401610a0c906149b6565b61208b816128b2565b60006001612d3384611301565b612d3d9190614cdd565b600083815260076020526040902054909150808214612d9d5773ffffffffffffffffffffffffffffffffffffffff841660009081526006602090815260408083208584528252808320548484528184208190558352600790915290208190555b50600091825260076020908152604080842084905573ffffffffffffffffffffffffffffffffffffffff9094168352600681528383209183525290812055565b600854600090612def90600190614cdd565b60008381526009602052604081205460088054939450909284908110612e1757612e17614edd565b906000526020600020015490508060088381548110612e3857612e38614edd565b6000918252602080832090910192909255828152600990915260408082208490558582528120556008805480612e7057612e70614eae565b6001900381819060005260206000200160009055905550505050565b6000612e9783611301565b73ffffffffffffffffffffffffffffffffffffffff9093166000908152600660209081526040808320868452825280832085905593825260079052919091209190915550565b6000612f1e436040518060400160405280601881526020017f4861736865733a206578636565647320333220626974732e000000000000000081525061349b565b73ffffffffffffffffffffffffffffffffffffffff85166000908152601460205260409020549091508015801590612fa2575073ffffffffffffffffffffffffffffffffffffffff8516600090815260136020526040812063ffffffff841691612f89600185614cdd565b815260208101919091526040016000205463ffffffff16145b15612ff25773ffffffffffffffffffffffffffffffffffffffff851660009081526013602052604081208491612fd9600185614cdd565b81526020810191909152604001600020600101556130a1565b60408051808201825263ffffffff8481168252602080830187815273ffffffffffffffffffffffffffffffffffffffff8a16600090815260138352858120878252909252939020915182547fffffffffffffffffffffffffffffffffffffffffffffffffffffffff0000000016908216178255915160019182015561307a9183919061228d16565b73ffffffffffffffffffffffffffffffffffffffff86166000908152601460205260409020555b8473ffffffffffffffffffffffffffffffffffffffff167fdec2bacdd2f05b59de34da9b523dff8be42e5e38e818c82fdb0bae774387a72485856040516130e9929190614be6565b60405180910390a25050505050565b61310383838361217b565b600e5481108015613123575060008181526011602052604090205460ff16155b15610b1a57610b1a8383600161241c565b600073ffffffffffffffffffffffffffffffffffffffff84163b156132d2576040517f150b7a0200000000000000000000000000000000000000000000000000000000815273ffffffffffffffffffffffffffffffffffffffff85169063150b7a02906131ab9033908990889088906004016148a3565b602060405180830381600087803b1580156131c557600080fd5b505af1925050508015613213575060408051601f3d9081017fffffffffffffffffffffffffffffffffffffffffffffffffffffffffffffffe01682019092526132109181019061399d565b60015b613287573d808015613241576040519150601f19603f3d011682016040523d82523d6000602084013e613246565b606091505b50805161327f576040517f08c379a0000000000000000000000000000000000000000000000000000000008152600401610a0c906149a6565b805181602001fd5b7fffffffff00000000000000000000000000000000000000000000000000000000167f150b7a02000000000000000000000000000000000000000000000000000000001490506126e3565b5060016126e3565b6132e483836134e5565b6132f16000848484613134565b610b1a576040517f08c379a0000000000000000000000000000000000000000000000000000000008152600401610a0c906149a6565b60007fe6c775d77ef8ec84277aad8c3f9e3fa051e3ca07ea28a40e99a1fdf5b8cc0709602083101561335557fe5b7fffffffffffffffffffffffffffffffffffffffffffffffffffffffffffffffe09092018051928152604081209290525090565b7ffffffffffffffffffffffffffffffffebaaedce6af48a03bbfd25e8cd036414182106133e2576040517f08c379a0000000000000000000000000000000000000000000000000000000008152600401610a0c90614976565b61340d60027ffffffffffffffffffffffffffffffffebaaedce6af48a03bbfd25e8cd0364141614c8c565b613418906001614c74565b8110613450576040517f08c379a0000000000000000000000000000000000000000000000000000000008152600401610a0c90614a86565b8260ff16601b148061346557508260ff16601c145b610b1a576040517f08c379a0000000000000000000000000000000000000000000000000000000008152600401610a0c906149f6565b60008164010000000084106134dd576040517f08c379a0000000000000000000000000000000000000000000000000000000008152600401610a0c9190614965565b509192915050565b73ffffffffffffffffffffffffffffffffffffffff8216613532576040517f08c379a0000000000000000000000000000000000000000000000000000000008152600401610a0c90614a76565b60008181526002602052604090205473ffffffffffffffffffffffffffffffffffffffff161561358e576040517f08c379a0000000000000000000000000000000000000000000000000000000008152600401610a0c906149c6565b61359a600083836130f8565b73ffffffffffffffffffffffffffffffffffffffff821660009081526003602052604081208054600192906135d0908490614c74565b909155505060008181526002602052604080822080547fffffffffffffffffffffffff00000000000000000000000000000000000000001673ffffffffffffffffffffffffffffffffffffffff861690811790915590518392907fddf252ad1be2c89b69c2b068fc378daa952ba7f163c4a11628f55a4df523b3ef908290a45050565b82805461365f90614d4a565b90600052602060002090601f01602090048101928261368157600085556136c7565b82601f1061369a57805160ff19168380011785556136c7565b828001600101855582156136c7579182015b828111156136c75782518255916020019190600101906136ac565b506136d39291506136d7565b5090565b5b808211156136d357600081556001016136d8565b60006136ff6136fa84614c2b565b614c0f565b90508281526020810184848401111561371a5761371a600080fd5b613725848285614d12565b509392505050565b803561091981614f3b565b803561091981614f4f565b803561091981614f57565b805161091981614f57565b600082601f83011261376d5761376d600080fd5b81356126e38482602086016136ec565b803561091981614f7f565b60006020828403121561379d5761379d600080fd5b60006126e3848461372d565b600080604083850312156137bf576137bf600080fd5b60006137cb858561372d565b92505060206137dc8582860161372d565b9150509250929050565b6000806000606084860312156137fe576137fe600080fd5b600061380a868661372d565b935050602061381b8682870161372d565b925050604061382c8682870161377d565b9150509250925092565b6000806000806080858703121561384f5761384f600080fd5b600061385b878761372d565b945050602061386c8782880161372d565b935050604061387d8782880161377d565b925050606085013567ffffffffffffffff81111561389d5761389d600080fd5b6138a987828801613759565b91505092959194509250565b600080604083850312156138cb576138cb600080fd5b60006138d7858561372d565b92505060206137dc85828601613738565b600080604083850312156138fe576138fe600080fd5b600061390a858561372d565b92505060206137dc8582860161377d565b60008060006060848603121561393357613933600080fd5b600061393f868661372d565b93505060206139508682870161377d565b925050604084013567ffffffffffffffff81111561397057613970600080fd5b61382c86828701613759565b60006020828403121561399157613991600080fd5b60006126e38484613743565b6000602082840312156139b2576139b2600080fd5b60006126e3848461374e565b6000602082840312156139d3576139d3600080fd5b813567ffffffffffffffff8111156139ed576139ed600080fd5b6126e384828501613759565b600060208284031215613a0e57613a0e600080fd5b60006126e3848461377d565b600080600060608486031215613a3257613a32600080fd5b6000613a3e868661377d565b93505060206139508682870161372d565b60008060408385031215613a6557613a65600080fd5b6000613a71858561377d565b925050602083013567ffffffffffffffff811115613a9157613a91600080fd5b6137dc85828601613759565b613aa681614cf4565b82525050565b613aa6613ab882614cf4565b614dfb565b801515613aa6565b80613aa6565b6000613ad5825190565b808452602084019350613aec818560208601614d1e565b601f017fffffffffffffffffffffffffffffffffffffffffffffffffffffffffffffffe0169290920192915050565b6000613b25825190565b613b33818560208601614d1e565b9290920192915050565b60008154613b4a81614d4a565b600182168015613b615760018114613b9057613bc0565b7fffffffffffffffffffffffffffffffffffffffffffffffffffffffffffffff00831686528186019350613bc0565b60008581526020902060005b83811015613bb857815488820152600190910190602001613b9c565b838801955050505b50505092915050565b603281526000602082017f4c69625369676e61747572653a207220706172616d65746572206f662073696781527f6e617475726520697320696e76616c69642e0000000000000000000000000000602082015291505b5060400190565b602681526000602082017f4861736865733a204d75737420706173732073756666696369656e74206d696e81527f74206665652e000000000000000000000000000000000000000000000000000060208201529150613c1f565b602b81526000602082017f455243373231456e756d657261626c653a206f776e657220696e646578206f7581527f74206f6620626f756e647300000000000000000000000000000000000000000060208201529150613c1f565b603281526000602082017f4552433732313a207472616e7366657220746f206e6f6e20455243373231526581527f63656976657220696d706c656d656e746572000000000000000000000000000060208201529150613c1f565b602681526000602082017f4f776e61626c653a206e6577206f776e657220697320746865207a65726f206181527f646472657373000000000000000000000000000000000000000000000000000060208201529150613c1f565b601c81526000602082017f4552433732313a20746f6b656e20616c7265616479206d696e74656400000000815291505b5060200190565b602481526000602082017f4552433732313a207472616e7366657220746f20746865207a65726f2061646481527f726573730000000000000000000000000000000000000000000000000000000060208201529150613c1f565b601981526000602082017f4552433732313a20617070726f766520746f2063616c6c65720000000000000081529150613dbe565b603281526000602082017f4c69625369676e61747572653a207620706172616d65746572206f662073696781527f6e617475726520697320696e76616c69642e000000000000000000000000000060208201529150613c1f565b602181526000602082017f4c69625369676e61747572653a20426164207369676e6174757265206461746181527f2e0000000000000000000000000000000000000000000000000000000000000060208201529150613c1f565b602c81526000602082017f4552433732313a206f70657261746f7220717565727920666f72206e6f6e657881527f697374656e7420746f6b656e000000000000000000000000000000000000000060208201529150613c1f565b601681526000602082017f4861736865733a206d757374206265206f776e65722e0000000000000000000081529150613dbe565b602781526000602082017f4861736865733a206661696c656420746f2073656e642045544820746f20486181527f7368657344414f0000000000000000000000000000000000000000000000000060208201529150613c1f565b603881526000602082017f4552433732313a20617070726f76652063616c6c6572206973206e6f74206f7781527f6e6572206e6f7220617070726f76656420666f7220616c6c000000000000000060208201529150613c1f565b602a81526000602082017f4552433732313a2062616c616e636520717565727920666f7220746865207a6581527f726f20616464726573730000000000000000000000000000000000000000000060208201529150613c1f565b602981526000602082017f4552433732313a206f776e657220717565727920666f72206e6f6e657869737481527f656e7420746f6b656e000000000000000000000000000000000000000000000060208201529150613c1f565b60208082527f4552433732313a206d696e7420746f20746865207a65726f206164647265737391019081526000613dbe565b603281526000602082017f4c69625369676e61747572653a207320706172616d65746572206f662073696781527f6e617475726520697320696e76616c69642e000000000000000000000000000060208201529150613c1f565b602c81526000602082017f4552433732313a20617070726f76656420717565727920666f72206e6f6e657881527f697374656e7420746f6b656e000000000000000000000000000000000000000060208201529150613c1f565b602e81526000602082017f4861736865733a20636f756c646e277420706179206f776e657220746865206181527f637469766174696f6e206665652e00000000000000000000000000000000000060208201529150613c1f565b603a81526000602082017f4861736865733a2043616e27742070726f76696465206120746f6b656e20555281527f4920666f722061206e6f6e2d6578697374656e7420686173682e00000000000060208201529150613c1f565b60208082527f4f776e61626c653a2063616c6c6572206973206e6f7420746865206f776e657291019081526000613dbe565b602981526000602082017f4552433732313a207472616e73666572206f6620746f6b656e2074686174206981527f73206e6f74206f776e000000000000000000000000000000000000000000000060208201529150613c1f565b603681526000602082017f4861736865733a2054686520746f6b656e206f776e6572206d7573742061707081527f726f76652074686520646561637469766174696f6e2e0000000000000000000060208201529150613c1f565b603881526000602082017f4861736865733a20636f756c646e277420726566756e642073656e646572207781527f697468207468652072656d61696e696e672065746865722e000000000000000060208201529150613c1f565b602d81526000602082017f4861736865733a2063616e2774207472616e73666572206f776e65727368697081527f207768656e206c6f636b65642e0000000000000000000000000000000000000060208201529150613c1f565b602181526000602082017f4552433732313a20617070726f76616c20746f2063757272656e74206f776e6581527f720000000000000000000000000000000000000000000000000000000000000060208201529150613c1f565b603281526000602082017f4861736865733a2043616e27742067656e65726174652068617368207769746881527f2074686520656d70747920737472696e672e000000000000000000000000000060208201529150613c1f565b602181526000602082017f4861736865733a206d757374206265206120726573657276656420746f6b656e81527f2e0000000000000000000000000000000000000000000000000000000000000060208201529150613c1f565b603181526000602082017f4552433732313a207472616e736665722063616c6c6572206973206e6f74206f81527f776e6572206e6f7220617070726f76656400000000000000000000000000000060208201529150613c1f565b601d81526000602082017f4861736865733a206661696c656420746f20726566756e64204554482e00000081529150613dbe565b602c81526000602082017f455243373231456e756d657261626c653a20676c6f62616c20696e646578206f81527f7574206f6620626f756e6473000000000000000000000000000000000000000060208201529150613c1f565b603081526000602082017f4c69625369676e61747572653a205369676e6174757265206c656e677468206d81527f7573742062652036352062797465732e0000000000000000000000000000000060208201529150613c1f565b602181526000602082017f4861736865733a20626c6f636b206e6f74207965742064657465726d696e656481527f2e0000000000000000000000000000000000000000000000000000000000000060208201529150613c1f565b601981526000602082017f4861736865733a2063616e2774206c6f636b2074776963652e0000000000000081529150613dbe565b601f81526000602082017f5265656e7472616e637947756172643a207265656e7472616e742063616c6c0081529150613dbe565b602881526000602082017f4861736865733a2063616e27742072652d75736520616e206f6c642070726f7081527f6f73616c2049442e00000000000000000000000000000000000000000000000060208201529150613c1f565b602f81526000602082017f4861736865733a206d757374207061792061646571756174652066656520746f81527f20616374697661746520686173682e000000000000000000000000000000000060208201529150613c1f565b601981526000602082017f4861736865733a20616c72656164792072656465656d65642e0000000000000081529150613dbe565b63ffffffff8116613aa6565b60ff8116613aa6565b600061484c8285613b3d565b91506126e38284613b1b565b600081610919565b600061486c8286613ac5565b60208201915061487c8285613aac565b60148201915061488c8284613b1b565b95945050505050565b602081016109198284613a9d565b608081016148b18287613a9d565b6148be6020830186613a9d565b6148cb6040830185613ac5565b81810360608301526148dd8184613acb565b9695505050505050565b606081016148f58286613a9d565b6149026020830185613ac5565b818103604083015261488c8184613acb565b602081016109198284613abd565b602081016109198284613ac5565b6080810161493e8287613ac5565b61494b6020830186614837565b6149586040830185613ac5565b61488c6060830184613ac5565b6020808252810161129e8184613acb565b6020808252810161091981613bc9565b6020808252810161091981613c26565b6020808252810161091981613c80565b6020808252810161091981613cda565b6020808252810161091981613d34565b6020808252810161091981613d8e565b6020808252810161091981613dc5565b6020808252810161091981613e1f565b6020808252810161091981613e53565b6020808252810161091981613ead565b6020808252810161091981613f07565b6020808252810161091981613f61565b6020808252810161091981613f95565b6020808252810161091981613fef565b6020808252810161091981614049565b60208082528101610919816140a3565b60208082528101610919816140fd565b602080825281016109198161412f565b6020808252810161091981614189565b60208082528101610919816141e3565b602080825281016109198161423d565b6020808252810161091981614297565b60208082528101610919816142c9565b6020808252810161091981614323565b602080825281016109198161437d565b60208082528101610919816143d7565b6020808252810161091981614431565b602080825281016109198161448b565b60208082528101610919816144e5565b602080825281016109198161453f565b6020808252810161091981614599565b60208082528101610919816145cd565b6020808252810161091981614627565b6020808252810161091981614681565b60208082528101610919816146db565b602080825281016109198161470f565b6020808252810161091981614743565b602080825281016109198161479d565b60208082528101610919816147f7565b60408101614bf48285613ac5565b61129e6020830184613ac5565b60408101614bf4828561482b565b6000614c1a60405190565b9050614c268282614d77565b919050565b600067ffffffffffffffff821115614c4557614c45614f0c565b7fffffffffffffffffffffffffffffffffffffffffffffffffffffffffffffffe0601f83011660200192915050565b60008219821115614c8757614c87614e21565b500190565b600082614c9b57614c9b614e50565b500490565b6000817fffffffffffffffffffffffffffffffffffffffffffffffffffffffffffffffff0483118215151615614cd857614cd8614e21565b500290565b600082821015614cef57614cef614e21565b500390565b600073ffffffffffffffffffffffffffffffffffffffff8216610919565b82818337506000910152565b60005b83811015614d39578181015183820152602001614d21565b838111156117f85750506000910152565b600281046001821680614d5e57607f821691505b60208210811415614d7157614d71614e7f565b50919050565b7fffffffffffffffffffffffffffffffffffffffffffffffffffffffffffffffe0601f830116810181811067ffffffffffffffff82111715614dbb57614dbb614f0c565b6040525050565b60007fffffffffffffffffffffffffffffffffffffffffffffffffffffffffffffffff821415614df457614df4614e21565b5060010190565b60006109198260006109198260601b90565b600082614e1c57614e1c614e50565b500690565b7f4e487b7100000000000000000000000000000000000000000000000000000000600052601160045260246000fd5b7f4e487b7100000000000000000000000000000000000000000000000000000000600052601260045260246000fd5b7f4e487b7100000000000000000000000000000000000000000000000000000000600052602260045260246000fd5b7f4e487b7100000000000000000000000000000000000000000000000000000000600052603160045260246000fd5b7f4e487b7100000000000000000000000000000000000000000000000000000000600052603260045260246000fd5b7f4e487b7100000000000000000000000000000000000000000000000000000000600052604160045260246000fd5b614f4481614cf4565b811461208b57600080fd5b801515614f44565b7fffffffff000000000000000000000000000000000000000000000000000000008116614f44565b80614f4456fea26469706673582212203167c22ad232d1c1f9442c65fb81f810dac7f1ea75d68b7187a775e7b759235a64736f6c63430008060033",
    "linkReferences": {},
    "deployedLinkReferences": {}
}